{
  "contractName": "FreelancePlatform",
  "abi": [
    {
      "inputs": [
        {
          "internalType": "address",
          "name": "_freelancer",
          "type": "address"
        },
        {
          "internalType": "uint256",
          "name": "_amount",
          "type": "uint256"
        }
      ],
      "stateMutability": "nonpayable",
      "type": "constructor"
    },
    {
      "inputs": [],
      "name": "amount",
      "outputs": [
        {
          "internalType": "uint256",
          "name": "",
          "type": "uint256"
        }
      ],
      "stateMutability": "view",
      "type": "function",
      "constant": true
    },
    {
      "inputs": [],
      "name": "client",
      "outputs": [
        {
          "internalType": "address",
          "name": "",
          "type": "address"
        }
      ],
      "stateMutability": "view",
      "type": "function",
      "constant": true
    },
    {
      "inputs": [],
      "name": "completed",
      "outputs": [
        {
          "internalType": "bool",
          "name": "",
          "type": "bool"
        }
      ],
      "stateMutability": "view",
      "type": "function",
      "constant": true
    },
    {
      "inputs": [],
      "name": "freelancer",
      "outputs": [
        {
          "internalType": "address",
          "name": "",
          "type": "address"
        }
      ],
      "stateMutability": "view",
      "type": "function",
      "constant": true
    },
    {
      "inputs": [],
      "name": "completeTask",
      "outputs": [],
      "stateMutability": "nonpayable",
      "type": "function"
    }
  ],
  "bytecode": "0x608060405234801561000f575f80fd5b5060405161064538038061064583398181016040528101906100319190610168565b335f806101000a81548173ffffffffffffffffffffffffffffffffffffffff021916908373ffffffffffffffffffffffffffffffffffffffff1602179055508160015f6101000a81548173ffffffffffffffffffffffffffffffffffffffff021916908373ffffffffffffffffffffffffffffffffffffffff160217905550806002819055505f60035f6101000a81548160ff02191690831515021790555050506101a6565b5f80fd5b5f73ffffffffffffffffffffffffffffffffffffffff82169050919050565b5f610104826100db565b9050919050565b610114816100fa565b811461011e575f80fd5b50565b5f8151905061012f8161010b565b92915050565b5f819050919050565b61014781610135565b8114610151575f80fd5b50565b5f815190506101628161013e565b92915050565b5f806040838503121561017e5761017d6100d7565b5b5f61018b85828601610121565b925050602061019c85828601610154565b9150509250929050565b610492806101b35f395ff3fe608060405234801561000f575f80fd5b5060043610610055575f3560e01c8063109e94cf1461005957806343bb8db5146100775780639d9a7fe914610081578063a37dda2c1461009f578063aa8c217c146100bd575b5f80fd5b6100616100db565b60405161006e91906102d9565b60405180910390f35b61007f6100fe565b005b61008961025d565b604051610096919061030c565b60405180910390f35b6100a761026f565b6040516100b491906102d9565b60405180910390f35b6100c5610294565b6040516100d2919061033d565b60405180910390f35b5f8054906101000a900473ffffffffffffffffffffffffffffffffffffffff1681565b5f8054906101000a900473ffffffffffffffffffffffffffffffffffffffff1673ffffffffffffffffffffffffffffffffffffffff163373ffffffffffffffffffffffffffffffffffffffff161461018b576040517f08c379a0000000000000000000000000000000000000000000000000000000008152600401610182906103d6565b60405180910390fd5b60035f9054906101000a900460ff16156101da576040517f08c379a00000000000000000000000000000000000000000000000000000000081526004016101d19061043e565b60405180910390fd5b600160035f6101000a81548160ff02191690831515021790555060015f9054906101000a900473ffffffffffffffffffffffffffffffffffffffff1673ffffffffffffffffffffffffffffffffffffffff166108fc60025490811502906040515f60405180830381858888f1935050505015801561025a573d5f803e3d5ffd5b50565b60035f9054906101000a900460ff1681565b60015f9054906101000a900473ffffffffffffffffffffffffffffffffffffffff1681565b60025481565b5f73ffffffffffffffffffffffffffffffffffffffff82169050919050565b5f6102c38261029a565b9050919050565b6102d3816102b9565b82525050565b5f6020820190506102ec5f8301846102ca565b92915050565b5f8115159050919050565b610306816102f2565b82525050565b5f60208201905061031f5f8301846102fd565b92915050565b5f819050919050565b61033781610325565b82525050565b5f6020820190506103505f83018461032e565b92915050565b5f82825260208201905092915050565b7f4f6e6c792074686520636c69656e742063616e20636f6d706c657465207468655f8201527f207461736b000000000000000000000000000000000000000000000000000000602082015250565b5f6103c0602583610356565b91506103cb82610366565b604082019050919050565b5f6020820190508181035f8301526103ed816103b4565b9050919050565b7f5461736b20616c726561647920636f6d706c65746564000000000000000000005f82015250565b5f610428601683610356565b9150610433826103f4565b602082019050919050565b5f6020820190508181035f8301526104558161041c565b905091905056fea26469706673582212203008c79a4e3dce8a61982c171e291fcd55c70530685368b7946063eab76578ac64736f6c63430008150033",
  "immutableReferences": {},
  "source": "// SPDX-License-Identifier: MIT\npragma solidity ^0.8.0;\n\ncontract FreelancePlatform {\n    address public client;\n    address public freelancer;\n    uint256 public amount;\n    bool public completed;\n\n    constructor(address _freelancer, uint256 _amount) {\n        client = msg.sender;\n        freelancer = _freelancer;\n        amount = _amount;\n        completed = false;\n    }\n\n    function completeTask() public {\n        require(msg.sender == client, \"Only the client can complete the task\");\n        require(!completed, \"Task already completed\");\n\n        completed = true;\n        payable(freelancer).transfer(amount);\n    }\n}\n",
  "sourcePath": "/Users/danielapassos/Desktop/FreelancePlatform/contracts/FreelancePlatform.sol",
  "compiler": {
    "name": "solc",
    "version": "0.8.21+commit.d9974bed.Emscripten.clang"
  },
  "schemaVersion": "3.4.16",
  "updatedAt": "2023-09-22T17:25:02.123Z",
  "networkType": "ethereum",
  "devdoc": {
    "kind": "dev",
    "methods": {},
    "version": 1
  },
  "userdoc": {
    "kind": "user",
    "methods": {},
    "version": 1
  }
}